:03000000020006F5
:03005F0002000399
:03000300020AFFEF
:2000620075360074F725364024E4F539F53AAE39AF3AC3EE9430EF9475500E0074012539FA
:20008200F539E4353AF53A80E5053680D622120062020062AF82E4F537F5385386FD8FC12A
:2000A200E58620E116AE37AF3874012EF537E43FF538E537453870E8F582225386FD75827A
:2000C2000122D281753300753400221200C4D28022120090C280D2A043FF01120090C2A04E
:2000E200120090120090D2A0D28143FD0212009053F1FE75860075C53175C20043FD284387
:20010200F328C292C281758200120096AF82D281D292C281EF600875820E120096AF82D25A
:2001220081C007120090D007C292C281EF60087582E5120096AF82D281D292C281EF600808
:20014200758219120096AF82D281C292C281EF60087582E0120096AF82D281D292C281EFDA
:200162006008758202120096AF82D281C292C281EF6008758200120096AF82D281D292C2B9
:2001820081EF60087582CF120096AF82EF600875828D120096AF82D281900D7575F080C028
:2001A20007120BFFD0078F82C007120CA8120C2AD0077533007534007535008F8222AE8228
:2001C200AF837D01C3EE94F8EF9415505EE533701DC292C281758210C007C006120096ADC5
:2001E20082D006D007D281D292C281753301ED6010853B82C007C006120096AD82D006D082
:2002020007ED700302028474012EFBE43FFCBBF871BC156ED281753300900D7B75F080C015
:2002220005120BFF120C2AD0058057E534701DC292C281758213C007C006120096AD82D02C
:2002420006D007D281D292C281753401ED6010853B82C007C006120096AD82D006D007ED7E
:2002620060200EBE00010FBEF018BF2B15D281753400900D8275F080C005120BFF120C2A32
:20028200D0058D8222C292C281758204120096AF82D281D292C281EF6008758200120096FB
:2002A200AF82D281C007120090D007C292C281EF6008758212120096AF82D281D292C281AE
:2002C200EF6008758200120096AF82D2818F35900D8975F080C007120BFFD0078F82120CEA
:2002E200A8900D8E75F080120BFFA293E433F582120CA8120C2A7F007E00C007C0061200BB
:2003020062900D9575F080120BFFA293E433F582120CA8120C2AD006D0072093027F01EFA4
:2003220060032093060EBE640040CF22753950753A00E539453A601100AE39AF3AEE24FFA2
:20034200F539EF34FFF53A80E922C28443FD102253FDEF22C28643FD402253FDBF7F0020E0
:200362008608BFFF0050030F80F52212035212035C12032E12034C12032E02035612034CBB
:2003820012032E12035C12032E12035202032EAF827E00EF30E70DC007C006120352D0063E
:2003A200D007800BC007C00612034CD006D007C007C00612032E12035C12032E120356D07F
:2003C20006D0078F05ED2DFF0EBE080040C512035212032E12035C12032E3084067E007FA3
:2003E2000080047E017F00C00612035612032ED0068E8222AF827E00C007C006120352D08A
:2004020006D0077D088E04EC2CFEC007C006C00512032E12035C12032ED005D006D00730D5
:200422008403430601C007C006C005120356D005D006D007DDCFEF6009C00612034CD006A9
:200442008007C006120352D006C00612032E12035C12032E12035612035212032ED0068EDA
:200462008222A291B39200E433F58222AE82AF83AC3C8C05E4FC6206ED62077D00EF30E7B2
:2004820012EE2EFBEF33FC6303216304108B068C078006EE2EFEEF33FF0DBD080040DE8EB2
:2004A200828F832290F00AE0FF7DFF7EFF7C00EC2400F582E434F0F583E0F53C8D828E836E
:2004C200C007C00412046EAD82AE83D004D0070CBC0E0040DA7C00C3EC9F502574102C24FD
:2004E20000F582E434F0F583E0F53C8D828E83C007C00412046EAD82AE83D004D0070C802C
:20050200D68D828E8322AC82AD83AEF0FFA83DE4F9FAFBE86204E96205EA6206EB62077556
:200522003E00EC30E01FEFC313FBEE13FAED13F9EC13F8742068FC748369FD74B86AFE7458
:20054200ED6BFF800DEFC313FFEE13FEED13FDEC13FC053E74F8253E50C88C828D838EF034
:20056200EF22E582FF2408C454F02400FDE434F0FEC007C006C00512036D7582AA1203918C
:20058200E582D005D006D00760118F82C006C005120391E582D005D0067004C2018002D220
:2005A20001A201E433FFE53F7065C007C006C00512036DD005D006D007EF60127582ABC06D
:2005C20006C005120391E582D005D0067004C2018002D201A201E433FF7C00EC2DFAE43EA0
:2005E200FB758201C007C006C005C004C003C0021203F6A982D002D003D004D005D006D041
:20060200078A828B83E9F00CBC100040CE80347C00EF601EEC2DF582E43EF583E0F582C01A
:2006220006C005C004120391E582D004D005D0067004C2018002D201A201E433FF0CBC1080
:200642000040CEC00712037FD0078F8222753F007582F8120564753F007582F91205647573
:200662003F007582FA120564753F007582FB020564753F017582F8120564753F017582F9F8
:20068200120564753F017582FA120564753F017582FB020564E521700C900D9E75F08012F6
:2006A2000BFF0207007401B5210B900DA475F080120BFF80497402B5210B900DAD75F0803E
:2006C200120BFF80397403B5210B900DB675F080120BFF80297404B5210B900DBE75F08055
:2006E200120BFF80197405B5210B900DC375F080120BFF8009900DC975F080120BFF900DFB
:20070200CF75F080120BFF852282120CA8900DD475F080120BFF852682120CA88525821275
:200722000CA8020C2A90F000744FF090F0017456F090F002744DF090F0037442F090F0047D
:200742007401F090F0057405F090F006E523F090F007E524F0AF2590F008EFF0AE2690F0B7
:2007620009EEF090F00A7404F090F00B74F0F090F00C742BF090F00D74B1F090F010E5216C
:20078200F090F011E522F090F012EFF090F013EEF07F14EF2400F582E434F0F583E4F00F7D
:2007A200BF400040EE1204A6AE82AF838E0590F00EEDF08F0690F00FEEF002067385822248
:2007C2007521060200CD90F000E0FFBF4F1A90F001E0FFBF561290F002E0FFBF4D0A90F0A7
:2007E20003E0FFBF420280012290F005E0FFBF05012290F00AE0F54224CF5006758206023B
:2008020007BFC0071204A6AC82AD83D00790F00EE0FB7A0090F00FE0F9E4F84203E94202BF
:20082200ECB50306EDB5020280067582030207BF90F006E0F54090F007E0F54190F008E07E
:20084200FB7A0090F009E0F9E44BF543E94AF54490F00BE0F8790090F00CE0FD7B00E84202
:2008620003E94205E530601CBF0219EFB52B15E52CB54010E52DB5410BE52EB54306E52FA6
:20088200B5440122E4F531F5328F2B85402C85412D85432E85442F75300190F004E0FABABF
:2008A200010280067582020207BFBF041675210575220BE4F525F526F527F528F529F52A47
:2008C2000200CDBF0162BBF006BD2B03D38001C39202501290F00DE0FDBDB10AE5434544E9
:2008E2007004E54160152002067B067D0080047B077D008B821207BF0200CD1200D3E5823E
:20090200700975820C1207BF0200CD854023E4F524F525F52614F527F528F529F52A752277
:2009220000752101753001227401B52102800675820C0207BFE523B5400280067582040236
:2009420007BFBF02028003020A2BE52404FDB5410280067582040207BFE525B54308E526F2
:20096200B54403D38001C39202501BE5426017AB427D00A943AA44EB29F9ED3AFAC374F02C
:2009820099742B9A501520020679057A00800479067A0089821207BF0200CD7A00C3EA9513
:2009A2004250748A007900AC25AE26E82CFCE93EFE74102A2400F582E434F0F583E0F53B79
:2009C2008C828E83C005C003C0021201C0E582D002D003D005700975820C1207BF0200CDD5
:2009E20074102A2400F582E434F0F583E0F53D8527828528838529F0E52AC005C003C002C5
:200A020012050885822785832885F029F52AD002D003D0050A8086AC25AE26EB2CFBED3E2E
:200A2200FD8B258D2685412422BF03028003020AE2AE25AF26BEF005BF2B02800675820847
:200A42000207BF7404B5420280067582060207BF90F010E0FF7E007D007C0090F011E0F8C1
:200A620079007A008A0389028801E44207E94206EA4205EB420490F012E0F8790089038829
:200A820002E4F94207E94206EA4205EB420490F013E0FBE4F8F9FAE84207E94206EA4205C9
:200AA200EB42046327FF6328FF6329FF632AFFEFB5270EEEB5280AEDB52906ECB52A02800D
:200AC200097582091207BF0200CD8541247522007521021207271206971202877521042205
:200AE20075820C0207BFAF21C00712064F1207C8120727D007EFB5210122020697E5BEC445
:200B020023541FFF530703C007120B9F120BE953F3AF438F5012035212035C53F4F153FEE0
:200B2200F543F608D29243FE0453F3FED28043FD011200C4E4F535F521F522F525F526F5C2
:200B420027F528F529F52AF530F531F5327E00C006120C2A900DDA75F080120BFF120C2A54
:200B6200900E0375F080120BFFD006D0078F82C006120CA8120C2A120697D006C0061204DE
:1D0B820064E582D00660047E0180F1EE60EEE4FEF531F532C006120AE8D00680DFF7
:200D7500494E49543D005031303D3031005031333D3031005245463D0020425553593D0092
:200D9500484220425553593D005245414459005452414E53464552005645524946494544EC
:200DB500005245465245534800444F4E450041424F5254004552524F52002045523D0020D3
:200DD500474F543D004F70656E567573696F6E204755313430204558502D303638207630D2
:1B0DF5002E313262204F564D422D4550440052455345545F43415553453D0006
:200B9F0053BEFBE5BE30E6FB53C6B8E5C620E6FB43BE042274F855C64440F5C6E5C630E64B
:020BBF00FB2217
:200BC100AF8253F4EFD29443FE1043F10275FA2274E055FCFE741F5F4EF5FC43F88053FB52
:200BE1008243FB0243F4402275820C020BC1AF8253F8FD8FF9E5F830E1FB53F8FD22AD8245
:200C0100AE83AFF08D828E838FF0120D55FC60188C820DBD00010EC007C006C005120BEF37
:200C2100D005D006D00780DC2275820D120BEF75820A020BEFAE82AF83EE4F70067582306A
:200C4100020BEF750E00EE4F604774FA250E4041E50E2408F9050E8E038F04750F0A7510AC
:200C6100008B828C83C004C003C001120D08AA82D001D003D00474302AF7750F0A7510006C
:200C81008B828C83120CDFAC82AD838C068D0780B5AF0EEF60101FEF2408F98782C0071250
:200CA1000BEFD00780ED22E582FFC4540FFE53060F7D00EE2410F582ED340EF583E493F5B7
:1E0CC10082C007120BEFD00753070F7E00EF2410F582EE340EF583E493F582020BEFD6
:110E100030313233343536373839414243444546002F
:200CDF007A10E4FBFCE58225E0F582E58333F583EB33FBEC33FCEB950FF5F0EC951040061B
:090CFF00FCABF0438201DADD22B6
:06003500E478FFF6D8FD9F
:200013007900E94400601B7A00900E2178407593F0E493F2A308B800020593D9F4DAF2754F
:0200330093FF39
:200D0800E50F451060467A01E50F25E0F50FE510334012F510E582950FE583951040030A80
:200D280080E6C3E51013F510E50F13F50FC3E582950FF5F0E58395104005F58385F082C333
:0D0D4800E51013F510E50F13F50FDAE122A9
:20003B007800E84400600A79007593F0E4F309D8FC7840E84400600C790190F000E4F0A3B1
:04005B00D8FCD9FAFA
:0D000600758144120D71E582600302000354
:1C0D550020F71430F6148883A88220F507E6A88375830022E280F7E49322E022AD
:040D71007582002265
:00000001FF
