:03000000020006F5
:03005F0002000399
:0300030002009365
:20006200750800748825084027E4F509F50AC3E5099460E50A94EA501000AE09AF0A740139
:200082002EF509E43FF50A80E5E50804F50880D32243FF06C2A1C2A2120062D2A1C2A212DC
:1200A2000062C2A1D2A2120062D2A1D2A212006280E2E2
:06003500E478FFF6D8FD9F
:200013007900E94400601B7A009000B878007593F0E493F2A308B800020593D9F4DAF27506
:0200330093FF39
:20003B007800E84400600A79007593F0E4F309D8FC7800E84400600C790090F000E4F0A3F2
:04005B00D8FCD9FAFA
:0D00060075810A1200B4E582600302000358
:0400B400758200222F
:00000001FF
