:040000000200913237
:01000B0032C2
:0100130032BA
:01001B0032B2
:0100230032AA
:01002B0032A2
:01003300329A
:01003B003292
:01004300328A
:01004B003282
:01005300327A
:01005B003272
:01006300326A
:01006B003262
:01007300325A
:01007B003252
:01008300324A
:03008B000200F67A
:0C00EA00E4F508F509F50AF50B02008E9C
:03008E0002016804
:2000F600C0E0C0D074022508F508E43509F509E4350AF50AE4350BF50B53E8EFD0D0D0E03A
:200116003275C90F439A20D2AF2285820C85830D85080E85090F850A10850B11E508C395C5
:200136000EF8E509950FF9E50A9510FEE50B9511FFAA0CAB0D7C007D00C3E89AE99BEE9C37
:20015600EF9D40D822E58224FF92A1E50C24FF92A22243FF06120117750C0075820012019F
:200176005B900FA0120120750C0075820012015B9003E8120120750C0075820112015B9091
:200196000FA0120120750C0075820012015B9003E8120120750C0175820012015B900FA0AD
:2001B600120120750C0075820012015B9003E8120120750C0175820112015B900FA0120128
:1301D60020750C0075820012015B90138812012002016E41
:0600C000E478FFF6D8FD14
:20009E007900E94400601B7A009001ED78007593F0E493F2A308B800020593D9F4DAF27545
:0200BE0093FFAE
:2000C6007800E84400600A79007593F0E4F309D8FC7800E84400600C790090F000E4F0A367
:0400E600D8FCD9FA6F
:0D0091007581111201E9E582600302008E05
:0401E90075820022F9
:00000001FF
